S0190000506F7765722D2D4F42436D2D506F7765722E7372656329
S11300000C942A000C943C000C943C000C943C008E
S11300100C943C000C943C000C943C000C943C006C
S11300200C943C000C943C000C943C000C943C005C
S11300300C943C000C943C000C943C000C943C004C
S11300400C943C000C943C000C943C000C94410037
S11300500C943C0011241FBECFE5D8E0DEBFCDBF19
S113006020E0A0E6B0E001C01D92A136B207E1F79E
S11300700E9477000C9491000C94000080E282B9F5
S113008008951F920F920FB60F9211242F933F934E
S11300904F935F936F937F938F939F93AF93BF938C
S11300A0EF93FF9381B1803619F0803829F00CC0AA
S11300B086B7806C86BF08C083B1809360000E94BD
S11300C08D0086B7806C86BF85EC86BFFF91EF916B
S11300D0BF91AF919F918F917F916F915F914F915C
S11300E03F912F910F900FBE0F901F9018950E9473
S11300F07F000E943E00789485EC86BFFFCF1BB83A
S11301001AB810BC599A8AB188618AB980B58E60D0
S113011080BD87E689B910BC08955D9BFECF8CB97C
S10901200895F894FFCFDE
S9030000FC
