:1000000045C0000058C0000056C0000054C00000A9
:1000100052C0000050C000004EC000004CC00000A4
:100020004AC0000048C0000046C0000044C00000B4
:1000300042C0000040C000003EC000003CC00000C4
:100040003AC0000038C0000036C0000034C00000D4
:1000500032C0000030C000002EC000002CC00000E4
:100060002AC0000028C0000026C0000024C00000F4
:1000700022C0000020C000001EC000001CC0000004
:100080001AC0000018C0000016C0000011241FBED6
:10009000CFEFD0E1DEBFCDBF11E0A0E0B1E0E4ECF6
:1000A000F2E000E00BBF02C007900D92A030B10754
:1000B000D9F78DD005C1A4CF1092710010927400B1
:1000C0008CE0809370000895E4E7F0E094EAA1E703
:1000D000B0E0908380818823ECF78C91887F883012
:1000E000C1F70895CF93DF93C3E7D0E0E4E7F0E0F2
:1000F00044E830E120E3A1E7B0E0888340833BBBE4
:1001000090819923ECF72BBB9C91987F9831A9F7AC
:1001100080E78BBB2FEF81EE94E021508040904030
:10012000E1F700C00000DF91CF910895AF92BF9238
:10013000CF92DF92EF92FF920F931F93CF93DF93B3
:10014000A82E03E710E0C4E7D0E00F2EF4E8BF2E9E
:10015000F02D6894CC24C5F86894DD24D6F80F2ED1
:10016000F1E7EF2EF12CF02DF801A082B88281E6A4
:10017000A3D0CBBAF80180819FD088818823ECF787
:1001800081E69AD0DBBAF7018081887F883261F7F7
:1001900080E88BBBFFEF21EE84E0F15020408040EF
:1001A000E1F700C00000DF91CF911F910F91FF9008
:1001B000EF90DF90CF90BF90AF90089584E9809347
:1001C0007400E4E7F0E0808184FFFDCF089580EFC4
:1001D0008ABB61D02FEF82E597E0215080409040AC
:1001E000E1F700C0000068DF84E666D081E664D0F5
:1001F00082E662D083E660D02FEF81EE94E021505A
:1002000080409040E1F700C0000000E1C0E210E44F
:10021000D0E881E351D00BBB2FEF80E792E0215073
:1002200080409040E1F700C000004EDF81E644D0FE
:10023000CBBB2FEF80E792E0215080409040E1F768
:1002400000C000008C2F4EDF82E636D01BBB2FEFA4
:1002500080E792E0215080409040E1F700C000002C
:1002600085E364DF83E628D0DBBB2FEF80E792E0F5
:10027000215080409040E1F700C000009FDF84E6FD
:100280001BD02FEF80E792E0215080409040E1F7B3
:1002900000C00000BECF1BB81AB8E5E9F0E010823C
:1002A000599A8AB188618AB980818E60808387E695
:1002B00089B91092900008955D9BFECF8CB9089586
:0402C000F894FFCFE0
:00000001FF
